{
  "address": "0xE2Cc192d59695595d02d0e463bF811493341c239",
  "abi": [
    {
      "inputs": [
        {
          "internalType": "address",
          "name": "priceFeedAddress",
          "type": "address"
        }
      ],
      "stateMutability": "nonpayable",
      "type": "constructor"
    },
    {
      "inputs": [],
      "name": "NotOwner",
      "type": "error"
    },
    {
      "stateMutability": "payable",
      "type": "fallback"
    },
    {
      "inputs": [
        {
          "internalType": "address",
          "name": "",
          "type": "address"
        }
      ],
      "name": "addressToAmountFunded",
      "outputs": [
        {
          "internalType": "uint256",
          "name": "",
          "type": "uint256"
        }
      ],
      "stateMutability": "view",
      "type": "function"
    },
    {
      "inputs": [],
      "name": "fund",
      "outputs": [],
      "stateMutability": "payable",
      "type": "function"
    },
    {
      "inputs": [
        {
          "internalType": "uint256",
          "name": "",
          "type": "uint256"
        }
      ],
      "name": "funders",
      "outputs": [
        {
          "internalType": "address",
          "name": "",
          "type": "address"
        }
      ],
      "stateMutability": "view",
      "type": "function"
    },
    {
      "inputs": [],
      "name": "i_owner",
      "outputs": [
        {
          "internalType": "address",
          "name": "",
          "type": "address"
        }
      ],
      "stateMutability": "view",
      "type": "function"
    },
    {
      "inputs": [],
      "name": "minimumUsd",
      "outputs": [
        {
          "internalType": "uint256",
          "name": "",
          "type": "uint256"
        }
      ],
      "stateMutability": "view",
      "type": "function"
    },
    {
      "inputs": [],
      "name": "priceFeed",
      "outputs": [
        {
          "internalType": "contract AggregatorV3Interface",
          "name": "",
          "type": "address"
        }
      ],
      "stateMutability": "view",
      "type": "function"
    },
    {
      "inputs": [],
      "name": "withdraw",
      "outputs": [],
      "stateMutability": "nonpayable",
      "type": "function"
    },
    {
      "stateMutability": "payable",
      "type": "receive"
    }
  ],
  "transactionHash": "0x37c4173b9b2c739fe81b838891e4b45be3ae1a3e84703135ec406c7523d3d0a8",
  "args": [
    "0x694AA1769357215DE4FAC081bf1f309aDC325306"
  ],
  "numDeployments": 1,
  "solcInputHash": "d9695f428ba58f56020223b5593ae621",
  "bytecode": "0x60a060405234801561001057600080fd5b50604051610f68380380610f6883398181016040528101906100329190610110565b3373ffffffffffffffffffffffffffffffffffffffff1660808173ffffffffffffffffffffffffffffffffffffffff168152505080600260006101000a81548173ffffffffffffffffffffffffffffffffffffffff021916908373ffffffffffffffffffffffffffffffffffffffff1602179055505061013d565b600080fd5b600073ffffffffffffffffffffffffffffffffffffffff82169050919050565b60006100dd826100b2565b9050919050565b6100ed816100d2565b81146100f857600080fd5b50565b60008151905061010a816100e4565b92915050565b600060208284031215610126576101256100ad565b5b6000610134848285016100fb565b91505092915050565b608051610e0961015f600039600081816102e1015261055f0152610e096000f3fe6080604052600436106100745760003560e01c8063741bef1a1161004e578063741bef1a1461010c578063b60d428814610137578063dba6335f14610141578063dc0d3dff1461016c57610083565b8063098de8201461008d5780633ccfd60b146100b85780633e47d6f3146100cf57610083565b36610083576100816101a9565b005b61008b6101a9565b005b34801561009957600080fd5b506100a26102d2565b6040516100af919061074d565b60405180910390f35b3480156100c457600080fd5b506100cd6102df565b005b3480156100db57600080fd5b506100f660048036038101906100f191906107cb565b61051f565b604051610103919061074d565b60405180910390f35b34801561011857600080fd5b50610121610537565b60405161012e9190610857565b60405180910390f35b61013f6101a9565b005b34801561014d57600080fd5b5061015661055d565b6040516101639190610881565b60405180910390f35b34801561017857600080fd5b50610193600480360381019061018e91906108c8565b610581565b6040516101a09190610881565b60405180910390f35b6802b5e3af16b18800006101e8600260009054906101000a900473ffffffffffffffffffffffffffffffffffffffff16346105c090919063ffffffff16565b1015610229576040517f08c379a000000000000000000000000000000000000000000000000000000000815260040161022090610952565b60405180910390fd5b6000339080600181540180825580915050600190039060005260206000200160009091909190916101000a81548173ffffffffffffffffffffffffffffffffffffffff021916908373ffffffffffffffffffffffffffffffffffffffff16021790555034600160003373ffffffffffffffffffffffffffffffffffffffff1673ffffffffffffffffffffffffffffffffffffffff16815260200190815260200160002081905550565b6802b5e3af16b188000081565b7f000000000000000000000000000000000000000000000000000000000000000073ffffffffffffffffffffffffffffffffffffffff163373ffffffffffffffffffffffffffffffffffffffff1614610364576040517f30cd747100000000000000000000000000000000000000000000000000000000815260040160405180910390fd5b60005b60008054905081101561040f57600080828154811061038957610388610972565b5b9060005260206000200160009054906101000a900473ffffffffffffffffffffffffffffffffffffffff1690506000600160008373ffffffffffffffffffffffffffffffffffffffff1673ffffffffffffffffffffffffffffffffffffffff16815260200190815260200160002081905550508080610407906109d0565b915050610367565b50600067ffffffffffffffff81111561042b5761042a610a19565b5b6040519080825280602002602001820160405280156104595781602001602082028036833780820191505090505b506000908051906020019061046f92919061068d565b5060003373ffffffffffffffffffffffffffffffffffffffff164760405161049690610a79565b60006040518083038185875af1925050503d80600081146104d3576040519150601f19603f3d011682016040523d82523d6000602084013e6104d8565b606091505b505090508061051c576040517f08c379a000000000000000000000000000000000000000000000000000000000815260040161051390610ada565b60405180910390fd5b50565b60016020528060005260406000206000915090505481565b600260009054906101000a900473ffffffffffffffffffffffffffffffffffffffff1681565b7f000000000000000000000000000000000000000000000000000000000000000081565b6000818154811061059157600080fd5b906000526020600020016000915054906101000a900473ffffffffffffffffffffffffffffffffffffffff1681565b6000806105cc836105fc565b90506000670de0b6b3a764000085836105e59190610afa565b6105ef9190610b83565b9050809250505092915050565b6000808273ffffffffffffffffffffffffffffffffffffffff1663feaf968c6040518163ffffffff1660e01b815260040160a060405180830381865afa15801561064a573d6000803e3d6000fd5b505050506040513d601f19601f8201168201806040525081019061066e9190610c41565b5050509150506402540be400816106859190610cbc565b915050919050565b828054828255906000526020600020908101928215610706579160200282015b828111156107055782518260006101000a81548173ffffffffffffffffffffffffffffffffffffffff021916908373ffffffffffffffffffffffffffffffffffffffff160217905550916020019190600101906106ad565b5b5090506107139190610717565b5090565b5b80821115610730576000816000905550600101610718565b5090565b6000819050919050565b61074781610734565b82525050565b6000602082019050610762600083018461073e565b92915050565b600080fd5b600073ffffffffffffffffffffffffffffffffffffffff82169050919050565b60006107988261076d565b9050919050565b6107a88161078d565b81146107b357600080fd5b50565b6000813590506107c58161079f565b92915050565b6000602082840312156107e1576107e0610768565b5b60006107ef848285016107b6565b91505092915050565b6000819050919050565b600061081d6108186108138461076d565b6107f8565b61076d565b9050919050565b600061082f82610802565b9050919050565b600061084182610824565b9050919050565b61085181610836565b82525050565b600060208201905061086c6000830184610848565b92915050565b61087b8161078d565b82525050565b60006020820190506108966000830184610872565b92915050565b6108a581610734565b81146108b057600080fd5b50565b6000813590506108c28161089c565b92915050565b6000602082840312156108de576108dd610768565b5b60006108ec848285016108b3565b91505092915050565b600082825260208201905092915050565b7f4469646e27742073656e6420656e6f7567682100000000000000000000000000600082015250565b600061093c6013836108f5565b915061094782610906565b602082019050919050565b6000602082019050818103600083015261096b8161092f565b9050919050565b7f4e487b7100000000000000000000000000000000000000000000000000000000600052603260045260246000fd5b7f4e487b7100000000000000000000000000000000000000000000000000000000600052601160045260246000fd5b60006109db82610734565b91507fffffffffffffffffffffffffffffffffffffffffffffffffffffffffffffffff821415610a0e57610a0d6109a1565b5b600182019050919050565b7f4e487b7100000000000000000000000000000000000000000000000000000000600052604160045260246000fd5b600081905092915050565b50565b6000610a63600083610a48565b9150610a6e82610a53565b600082019050919050565b6000610a8482610a56565b9150819050919050565b7f43616c6c206661696c6564000000000000000000000000000000000000000000600082015250565b6000610ac4600b836108f5565b9150610acf82610a8e565b602082019050919050565b60006020820190508181036000830152610af381610ab7565b9050919050565b6000610b0582610734565b9150610b1083610734565b9250817fffffffffffffffffffffffffffffffffffffffffffffffffffffffffffffffff0483118215151615610b4957610b486109a1565b5b828202905092915050565b7f4e487b7100000000000000000000000000000000000000000000000000000000600052601260045260246000fd5b6000610b8e82610734565b9150610b9983610734565b925082610ba957610ba8610b54565b5b828204905092915050565b600069ffffffffffffffffffff82169050919050565b610bd381610bb4565b8114610bde57600080fd5b50565b600081519050610bf081610bca565b92915050565b6000819050919050565b610c0981610bf6565b8114610c1457600080fd5b50565b600081519050610c2681610c00565b92915050565b600081519050610c3b8161089c565b92915050565b600080600080600060a08688031215610c5d57610c5c610768565b5b6000610c6b88828901610be1565b9550506020610c7c88828901610c17565b9450506040610c8d88828901610c2c565b9350506060610c9e88828901610c2c565b9250506080610caf88828901610be1565b9150509295509295909350565b6000610cc782610bf6565b9150610cd283610bf6565b9250827f7fffffffffffffffffffffffffffffffffffffffffffffffffffffffffffffff0482116000841360008413161615610d1157610d106109a1565b5b817f80000000000000000000000000000000000000000000000000000000000000000583126000841260008413161615610d4e57610d4d6109a1565b5b827f80000000000000000000000000000000000000000000000000000000000000000582126000841360008412161615610d8b57610d8a6109a1565b5b827f7fffffffffffffffffffffffffffffffffffffffffffffffffffffffffffffff0582126000841260008412161615610dc857610dc76109a1565b5b82820290509291505056fea2646970667358221220bc0cbcfccc22ec96ddb99bfd966ac2e2694608c2ee191b83859d7e66c9a3ba5a64736f6c634300080c0033",
  "devdoc": {
    "kind": "dev",
    "methods": {},
    "version": 1
  },
  "userdoc": {
    "kind": "user",
    "methods": {},
    "version": 1
  },
  "storageLayout": {
    "storage": [
      {
        "astId": 324,
        "contract": "contracts/FundMe.sol:FundMe",
        "label": "funders",
        "offset": 0,
        "slot": "0",
        "type": "t_array(t_address)dyn_storage"
      },
      {
        "astId": 328,
        "contract": "contracts/FundMe.sol:FundMe",
        "label": "addressToAmountFunded",
        "offset": 0,
        "slot": "1",
        "type": "t_mapping(t_address,t_uint256)"
      },
      {
        "astId": 333,
        "contract": "contracts/FundMe.sol:FundMe",
        "label": "priceFeed",
        "offset": 0,
        "slot": "2",
        "type": "t_contract(AggregatorV3Interface)102"
      }
    ],
    "types": {
      "t_address": {
        "encoding": "inplace",
        "label": "address",
        "numberOfBytes": "20"
      },
      "t_array(t_address)dyn_storage": {
        "base": "t_address",
        "encoding": "dynamic_array",
        "label": "address[]",
        "numberOfBytes": "32"
      },
      "t_contract(AggregatorV3Interface)102": {
        "encoding": "inplace",
        "label": "contract AggregatorV3Interface",
        "numberOfBytes": "20"
      },
      "t_mapping(t_address,t_uint256)": {
        "encoding": "mapping",
        "key": "t_address",
        "label": "mapping(address => uint256)",
        "numberOfBytes": "32",
        "value": "t_uint256"
      },
      "t_uint256": {
        "encoding": "inplace",
        "label": "uint256",
        "numberOfBytes": "32"
      }
    }
  }
}